:101C6E0041542B4349504D55583D310D0A004154B6
:101C7E002B4349505345525645523D312C35303049
:101C8E00300D0A0041542B43495053454E443D30CC
:101C9E002C31340D0A0074313920763334302064FF
:0F1CAE002020202030313233343536373839009A
:101F200001270001240002400019044443AB0000D3
:0B1F3000094800000000000000000055
:041EA1007F0A7E0036
:101EA500D3EF9400EE940040147D6E7C00ED1D7020
:0D1EB500011CED4C70F7EF1F70E61E80E37E
:011EC20022FD
:101F9000EF1FAC0670011E4C60060000000080F0D0
:011FA000221E
:031D0A002402FFB1
:101D0D00AD07D2A37FC87E00121F90C2A37FC87EED
:101D1D0000121F90EDD39400748094804015D2A4CE
:101D2D007F647E00121F90C2A47F647E00121F90FC
:041D3D001D80E12202
:091FE2007F17121D0D30A5FD2230
:04198D00AB07AA06F4
:101991007C037DE81213688F097C007D64AF03AE80
:1019A100021213687C007D0A1213688D0AAE02AF21
:1019B100037C007D0A1213687C007D0A121368AB58
:1019C10005E509250AFFE433FEEB7C002FFFEC3E21
:1019D1004F60557F11121D0D30A5FDE509700A7F7D
:1019E10002121D0D20A50780FBE509121D0A30A575
:1019F100FDEB250AFFE4334F60267F0E121D0D30EB
:101A0100A5FDE50A121D0A30A5FDEB60092402FFC0
:101A1100121D0D30A5FD7F20121D0D20A50A80FB92
:081A21007F20121D0D30A5FD10
:011A2900229A
:03002600DFFE22D8
:101E5B00D2B7C2B77FFA120026D2B77F1412002670
:101E6B0020B704C2058002D2057FFA120026D2B732
:021E7B00A205BE
:011E7D002242
:101E3100E4FEFDEEC3940874809480501AD2B7C2B8
:101E4100B7EDC313FDD2B730B703430580D2B77FD7
:091E51001E1200260E80DCAF0514
:011E5A002265
:021E7E00AE07AD
:101E8000E4FDEDC39408748094805014D2B7EEC37F
:101E900013FEC2B792B77F1E120026D2B70D80E2A2
:011EA000221F
:101AB600C204E4FCFD121E5B7FCC121E7E7F441224
:101AC6001E7E121E5B7FCC121E7E7FBE121E7E12F3
:101AD6001E31AC07121E31AD07ED754000F541759C
:101AE6004100F540AF04EF4241AF05C3EF940874DF
:101AF6008094804015E541F4FFE540F4FEEF2401B3
:101B0600F541E43EF540D2048002C204AC40AD414A
:101B1600E412119FE4FBFA7980783D120FF4E4FB9E
:101B2600FAF9783F120F031211D88E408F41A204A2
:011B3600228C
:101C1D00750864D3E508940074809480400E121A00
:101C2D00B67F017E00121EA5150880E7121B371224
:101C3D001F76121EA17BFF7A1C796E121F5C121E7D
:101C4D00A17BFF7A1C797C121F5C121EA112000E63
:101C5D00121FD8121FCD1216BB1213CB121F0280EA
:011C6D00EF87
:101B370075090C750A041217DA121CBDE50975F050
:101B470008A4240CFF751A107B5F7D021218CBAF17
:101B5700091509EF70E67B107D017F20121BAB751D
:101B67001A107B7C7D017F321218CB751A107B6DA2
:101B77007D017F5C1218CB751A107B2F7D017F6466
:101B87001218CB751A107B737D017F6C1218CB75F9
:101B97001A107B2E7D067F2F1218CB7B0B7D047FBF
:041BA70063020904C8
:1013CB0078097C007D007BFF7A1C79A47E007F0E60
:1013DB00121329C3E52394A0E522940F5003300682
:1013EB001AC206D2037B087D047F1C1209047B08FA
:1013FB007D047F381209047B088045C203AE22AFFF
:10140B00237C037DE8121368AB077D047F1C120954
:10141B0004AE22AF237C007D641213687C007D0A2E
:10142B00121368AB057D047F38120904AE22AF237B
:10143B007C007D0A1213687C007D0A121368AB05D1
:10144B007D047F4A1209042002030216BA300303FB
:10145B000216BAC202AE40AF417C007D0A1213687D
:10146B0074B22FF582741C3EF583E493F50AAE40FB
:10147B00AF417C007D0A12136874B22DF582741C87
:10148B003CF583E493F50BAF47AE46AD45AC441248
:10149B0011D8AB07AA067C007D6412136874B22FB7
:1014AB00F582741C3EF583E493F50E7C007D0AAF48
:1014BB0003AE021213687C007D0A12136874B22DFE
:1014CB00F582741C3CF583E493F50FAF47AE46AD44
:1014DB0045AC441211D87C007D0A12136874B22DEE
:1014EB00F582741C3CF583E493F510AE22AF237C9C
:1014FB00037DE8121368EF4E605074B22FF58274BF
:10150B001C3EF583E493F513AE22AF237C007D6480
:10151B001213687C007D0A12136874B22DF5827465
:10152B001C3CF583E493F514AE22AF237C007D0ABB
:10153B001213687C007D0A12136874B22DF5827445
:10154B001C3CF583E493F5158066AE22AF237C003B
:10155B007D641213687C007D0A121368ED4C6030B9
:10156B0074B22DF582741C3CF583E493F513AE2213
:10157B00AF237C007D0A1213687C007D0A1213686E
:10158B0074B22DF582741C3CF583E493F514802022
:10159B00AE22AF237C007D0A1213687C007D0A12F9
:1015AB00136874B22DF582741C3CF583E493F51328
:1015BB00300103750A2D0525C3E52594037480942A
:1015CB0080402FE4F525121AB6920130010C751AE2
:1015DB00107B2D7D017F031218CB7BFF7A1C799238
:1015EB00121F5C121EA17B007A007909121F5C127C
:1015FB001EA1D3E5239478E5229400402BE5239498
:10160B0096E522940050217F057E00121EA5D3E59E
:10161B00239478E52294004048E5239496E52294A0
:10162B0000503E7524018039D3E5239496E522942E
:10163B0000402BE52394C8E522940050217F057EC2
:10164B0000121EA5D3E5239496E52294004012E5E3
:10165B002394C8E522940050087524028003E4F516
:10166B0024AE40AF417C007D0A121368EF4E600C34
:10167B00751A10AB0A7D017F0C1218CB751A10ABC3
:10168B000B7D017F141218CB751A10AB0E7D017FE9
:10169B00401218CB751A10AB0F7D017F491218CB76
:0F16AB00751A10AB107D017F521218CB121EC39F
:0116BA00220D
:10000E00E4F5C9F5C8F5CC75CD4CF5CA75CB4CD217
:05001E00CA43A8A02266
:03002B00021DD7DC
:061DD700C0E0C0F0C0D026
:101DDD00C2CF0521C3E5219403748094804005751D
:101DED002100D202E52175F01484E5F07002D200D5
:071DFD00D0D0D0F0D0E0329D
:041E0400AB07AA0678
:101E0800300025C200900000C3E5829BE5839A500C
:101E180017C2B47F327E00121F90D2B47F327E0088
:081E2800121F90B2A2A380E09A
:011E3000228F
:101EC300E5246401700BF5247F0AFE121E04121F21
:101ED300E2E52464027008F5247F64FE121E0422E6
:101F020020B51A121EA120B514052730B5FDE5270C
:0E1F120014700AE4F527AF23AE2212198D22B7
:1016BB00E4F50985220A85230BAF8CEFFEAD8A7CFE
:1016CB0000E42DF50DEC3EF50C30012EAC40AD4198
:1016DB00E412119F7B907AA07978783D120FF4A8D1
:1016EB0004A905AA06AB077F337EB37DA57C431205
:1016FB000EFF8F478E468D458C44AC40AD41E412B6
:10170B00119F7B907AA07978783D120FF47B337A16
:10171B00B379A57843120F038F478E468D458C44C2
:10172B00AC0CAD0DE412119FAB47AA46A945A844DA
:10173B00120FF4E4FBFA79FA78441210FD1211D867
:10174B008E428F43E4F58CF58AD3E552940A74806C
:10175B00948050020552C3E552940B7480948040E0
:10176B0003755201E55225E02428F8A64208A6434A
:10177B000551AF517E00C3EF940A748094805006DC
:10178B00854222854323C3EF940AEE648094804004
:10179B003D75510A750901D3E509940A748094804B
:1017AB005018E50925E02428F8E6FE08E6253FF564
:1017BB003FEE353EF53E050980DDAE3EAF3F7C008A
:0E17CB007D0A1213688E228F23E4F53EF53F4F
:0117D90022ED
:101F5C00C2AF12134F6010F5993099FDC2997401FC
:0A1F6C0029F9E43AFA80EBD2AF2223
:03002300021D7447
:101D7400C0E0C0D075D000C000C007C2AF30981713
:101D8400C29830061274482526F8A6990526AF99FC
:101D9400EF640A7002F526D2AFD007D000D0D0D0BD
:021DA400E0322B
:10002E0000000000000000000000000000000000C2
:10003E00000000000000000000F8000000000000BA
:10004E0000333000000000100C06100C06000000FB
:10005E0000000000000040C07840C0784000043F1F
:10006E0004043F040400007088FC083000000018EF
:10007E0020FF211E0000F008F000E0180000002113
:10008E001C031E211E0000F00888700000001E21B7
:10009E0023241927211010160E0000000000000066
:1000AE00000000000000000000E018040200000044
:1000BE0000071820400000020418E0000000004075
:1000CE00201807000000404080F0804040000202EF
:1000DE00010F01020200000000F00000000001010B
:1000EE00011F01010100000000000000000080B0AF
:1000FE007000000000000000000000000000000181
:10010E0001010101010100000000000000000030AB
:10011E003000000000000000000080601804006045
:10012E0018060100000000E010080810E000000FA3
:10013E00102020100F00001010F80000000000200A
:10014E00203F202000000070080808887000003052
:10015E0028242221300000300888884830000018FA
:10016E00202020110E000000C02010F80000000713
:10017E000424243F240000F8088888080800001989
:10018E00212020110E0000E0108888180000000FBA
:10019E00112020110E0000380808C8380800000091
:1001AE00003F000000000070880808887000001CE6
:1001BE00222121221C0000E010080810E00000009F
:1001CE00312222110F00000000C0C000000000000C
:1001DE000030300000000000008000000000000031
:1001EE008060000000000000804020100800000128
:1001FE0002040810200040404040404040000404EB
:10020E0004040404040000081020408000000020B4
:10021E00100804020100007048080808F0000000F1
:10022E00003036010000C030C828E810E000071882
:10023E00272423140B000000C038E0000000203CEF
:10024E0023020227382008F8888888700000203F93
:10025E00202020110E00C0300808080838000718AA
:10026E0020202010080008F808080810E000203FA1
:10027E00202020100F0008F88888E8081000203F82
:10028E0020202320180008F88888E8081000203F56
:10029E00200003000000C0300808083800000718CE
:1002AE002020221E020008F808000008F808203F4F
:1002BE00210101213F20000808F808080000002055
:1002CE00203F2020000000000808F8080800C08029
:1002DE0080807F00000008F888C028180800203FA2
:1002EE0020012638200008F8080000000000203FFA
:1002FE0020202020300008F8F800F8F80800203FF1
:10030E00003F003F200008F830C00008F808203FEA
:10031E00200007183F00E01008080810E0000F103A
:10032E00202020100F0008F808080808F000203FD1
:10033E00210101010000E01008080810E0000F186C
:10034E00242438504F0008F8888888887000203F91
:10035E002000030C30200070880808083800003890
:10036E00202121221C00180808F808081800000097
:10037E00203F2000000008F808000008F808001FC1
:10038E00202020201F000878880000C838080000B0
:10039E0007380E010000F80800F80008F800033CCA
:1003AE000700073C03000818688080681808203092
:1003BE002C03032C30200838C800C8380800000071
:1003CE00203F2000000010080808C8380800203818
:1003DE00262120201800000000FE0202020000006C
:1003EE00007F40404000000C30C0000000000000C4
:1003FE0000010638C00000020202FE0000000040AC
:10040E0040407F00000000000402020204000000D1
:10041E0000000000000000000000000000008080CE
:10042E0080808080808000020204000000000000B6
:10043E000000000000000000808080800000001995
:10044E00242222223F2008F8008080000000003F76
:10045E00112020110E000000008080800000000E90
:10046E00112020201100000000808088F800000E6E
:10047E00112020103F200000808080800000001F8F
:10048E00222222221300008080F088888818002003
:10049E00203F202000000000808080808000006BC4
:1004AE0094949493600008F8008080800000203FB0
:1004BE00210000203F2000809898000000000020BE
:1004CE00203F20200000000000809898000000C00F
:1004DE008080807F000008F8000080808000203F30
:1004EE0024022D302000000808F800000000002033
:1004FE00203F202000008080808080808000203F70
:10050E0020003F20003F8080008080800000203F40
:10051E00210000203F200000808080800000001F0E
:10052E00202020201F00808000808000000080FF9F
:10053E00A12020110E000000008080808000000E9F
:10054E00112020A0FF8080808000808080002020ED
:10055E003F21200001000000808080808000003359
:10056E00242424241900008080E0808000000000F4
:10057E00001F202000008080000000808000001FEF
:10058E00202020103F20808080000080808000018D
:10059E000E300806010080800080008080800F30C1
:1005AE000C030C300F000080800080808000002043
:1005BE00312E0E312000808080000080808080816E
:1005CE008E701806010000808080808080000021DF
:1005DE00302C2221300000000000807C020200003E
:1005EE000000003F404000000000FF00000000003F
:1005FE000000FF0000000002027C800000000040AE
:10060E00403F000000000006010102020404000049
:10061E00000000000000000000C0E070180808088C
:10062E001830E0C0000000F8FFFF030000000000DB
:10063E00000003FFFFF8001FFFFFC00000000000D6
:10064E000000C0FFFF1F00000003070E181010105F
:10065E00180C0703000000000020202020E0F0F816
:10066E0000000000000000000000000000FFFFFF7F
:10067E0000000000000000000000000000FFFFFF6F
:10068E00000000000000000000101010181F1F1FB7
:10069E001810101000000080E0201008080808084C
:1006AE001870F0E08000000F0F0E00000000000038
:1006BE0080F0FF3F0F0000000000C06030180C07F4
:1006CE00030100008000001C1E1B191818181818B2
:1006DE001818181E070000C0E0B010080808081807
:1006EE0070F0E0800000000303030000808080C0F3
:1006FE00703F1F0F00000080C0C00000000000010E
:10070E000107FEFCF0000003070D08101010101872
:10071E00080E07030100000000000000000080C06A
:10072E00F0F8F800000000000000C03018060100CC
:10073E00FFFFFF000000101826232020202020207D
:10074E00FFFFFF20202000000000000010101010FE
:10075E001F1F1F101010000000F818181818181876
:10076E001818181818000000FCC360203030303004
:10077E0070E0E080000000C0E1E00000000000003A
:10078E000001FFFFFE0000030708081010101018EC
:10079E00180E0703000000000080E0603018080803
:1007AE000808F8F0E00000F0FFFF0380C060606012
:1007BE0060E0C0C08000003FFFFF8301000000002A
:1007CE00000003FFFFFE000001070F0C18101010B1
:1007DE0010180E07030000C07838181818181818CB
:1007EE001818D87818000001000000000000C07032
:1007FE000C03000000000000000000C0F8FF030022
:10080E0000000000000000000000001F1F1F00007D
:10081E00000000000000000080E0F030180808081A
:10082E00081830F0E08000000F1F3FF8F0E0C0C065
:10083E00C0C0703F1F0700F0FCFE07010000010161
:10084E0003071FFEFCF0000103070E08181010101E
:10085E0010180C0703010000C0E070180808080803
:10086E00081070E08000007FFFFFC0000000000055
:10087E000080E0FFFFFC00000103030706060606EA
:10088E000301F0FF7F0F0000070F1F10101010184C
:10089E000C07030100000000000000000000000033
:1008AE0000000000000020E0F040202020E0C040CA
:1008BE00202020E0C00000FFFF00000000FFFF002E
:1008CE00000000FFFF00080F0F080000080F0F08C0
:1008DE000000080F0F08060909E6F80C04020202D0
:1008EE000202041E0000000000071F30204040409E
:0608FE0040402010000044
:091FEB00D2A7D2A6C2A6C2A72209
:07000300D2A7C2A6D2A6227B
:0B1FA100121DAD121FACAF04121DADED
:051FAC00D2A7C2A7222C
:071DA600AC07121FEB7F7870
:101DAD00C2A7E4FEEEC3940874809480501BAD0767
:101DBD00530580ED64807004D2A68002C2A6EF2583
:091DCD00E0FFD2A7C2A70E80DBE3
:011DD60022EA
:0E1FB100121DA6121FACE4FF121FA1020003B6
:0E1FBF00121DA6121FAC7F40121FA1020003CC
:0D1F3E00900624E51993FF7E007D017C00D4
:101F4B00AB07AA06ED4C6003021FBFAF03121FB114
:011F5B002263
:071D4100E5182402FDAF17B5
:101D4800A907ED24B0FFE433FEE4FDFC121F4BE9C4
:101D580054F0C4540F7E004410FFE4FDFC121F4BE6
:0C1D6800E9540FFF7E00E4FDFC021F4B5D
:101CBD00E4F9E9FF7E00C3940874809480503DEFF1
:101CCD0024B0FFEE33FEE4FDFC121F4BE4FDFCFFE0
:101CDD00FE121F4BE4FDFC7F10FE121F4BE4F50BB3
:101CED00C3E50B948074809480500E7D017C00E4DC
:0C1CFD00FFFE121F4B050B80E70980B6AC
:011D090022B7
:0418CB008F178D18CE
:1018CF00E4F51BF9EB24E0F51BD3EF947F748094C0
:1018DF00804007E4F51705180518E51A6410706ABB
:1018EF00AD18AF17121D48E4F9E9C394087480943A
:1018FF0080502175F010E51BA429F582E435F0F531
:10190F0083E5822434F582E5833400F583E4121FE6
:10191F00430980D5E51804FDAF17121D48E4F9E916
:10192F00C3940874809480505475F010E51BA4295B
:10193F00F582E435F0F583E582243CF582E58334C6
:10194F0000F583E4121F430980D5AD18AF17121DA0
:10195F0048E4F9E9C39406748094805020E51B7520
:10196F00F006A4242EF582E43400F583E58229F5F0
:0D197F0082E43583F583E4121F430980D60E
:01198C002238
:061BAB008F0B8D0C8B0D69
:101BB100E4F50E121D48E4F9E9C394107480948091
:101BC1005022E50DC43354E024E4F582E43408F5F1
:101BD10083E58229F582E43583F583E4121F430509
:101BE1000E0980D4E50C04FDAF0B121D48E4F9E9A0
:101BF100C39410748094805022E50DC43354E024C2
:101C0100F4F582E43408F583E58229F582E435832D
:0B1C1100F583E4121F43050E0980D488
:011C1C0022A5
:1017DA00E4FDFC7FAEFE121F4BE4FDFCFFFE121F70
:1017EA004BE4FDFC7F10FE121F4BE4FDFC7F40FE24
:1017FA00121F4BE4FDFC7FB0FE121F4BE4FDFC7F81
:10180A0081FE121F4BE4FDFC7FFFFE121F4BE4FD1D
:10181A00FC7FA1FE121F4BE4FDFC7FA6FE121F4BAC
:10182A00E4FDFC7FA8FE121F4BE4FDFC7F3FFE1285
:10183A001F4BE4FDFC7FC8FE121F4BE4FDFC7FD367
:10184A00FE121F4BE4FDFCFFFE121F4BE4FDFC7F62
:10185A00D5FE121F4BE4FDFC7F80FE121F4BE4FDF8
:10186A00FC7FD8FE121F4BE4FDFC7F05FE121F4BC6
:10187A00E4FDFC7FD9FE121F4BE4FDFC7FF1FE1252
:10188A001F4BE4FDFC7FDAFE121F4BE4FDFC7F12C6
:10189A00FE121F4BE4FDFC7FDBFE121F4BE4FDFC36
:1018AA007F30FE121F4BE4FDFC7F8DFE121F4BE4BE
:1018BA00FDFC7F14FE121F4BE4FDFC7FAFFE021FEE
:0118CA004BD2
:040904008F178D18A4
:10090800EBB40C004003020EFB900918F82828737A
:1009180002093C0209B0020A36020ABE020B46026C
:100928000BCE020C56020CDE020D66020DEE020E14
:10093800FB020E76AD18AF17121D48E4F519C3E592
:1009480019940F748094805007121F3E051980EE89
:10095800E51804FDAF17121D48751910C3E5199461
:100968001F748094805007121F3E051980EE121DD7
:1009780041751920C3E519942F748094805007128B
:100988001F3E051980EEE5182403FDAF17121D4818
:10099800751930C3E519943F748094804003020EA2
:1009A800FB121F3E051980EBAD18AF17121D48E466
:1009B800F519C3E519940F74809480500A90066461
:1009C800121F41051980EBE51804FDAF17121D48E9
:1009D800751910C3E519941F74809480500CE5199B
:1009E800900664121F43051980E9121D41751920EC
:1009F800C3E519942F74809480500CE5199006640F
:100A0800121F43051980E9E5182403FDAF17121DCD
:100A180048751930C3E519943F74809480400302E7
:100A28000EFBE519900664121F43051980E6AD1800
:100A3800AF17121D48E4F519C3E519940F74809493
:100A480080500CE5199006A4121F43051980E9E5AA
:100A58001804FDAF17121D48751910C3E519941F26
:100A680074809480500CE5199006A4121F43051950
:100A780080E9121D41751920C3E519942F748094DB
:100A880080500CE5199006A4121F43051980E9E56A
:100A9800182403FDAF17121D48751930C3E51994C2
:100AA8003F748094804003020EFBE5199006A4125F
:100AB8001F43051980E6AD18AF17121D48E4F51954
:100AC800C3E519940F74809480500CE5199006E4DE
:100AD800121F43051980E9E51804FDAF17121D48D8
:100AE800751910C3E519941F74809480500CE5198A
:100AF8009006E4121F43051980E9121D417519205B
:100B0800C3E519942F74809480500CE5199006E47D
:100B1800121F43051980E9E5182403FDAF17121DBC
:100B280048751930C3E519943F74809480400302D6
:100B38000EFBE5199006E4121F43051980E6AD186F
:100B4800AF17121D48E4F519C3E519940F74809482
:100B580080500CE519900724121F43051980E9E518
:100B68001804FDAF17121D48751910C3E519941F15
:100B780074809480500CE519900724121F430519BE
:100B880080E9121D41751920C3E519942F748094CA
:100B980080500CE519900724121F43051980E9E5D8
:100BA800182403FDAF17121D48751930C3E51994B1
:100BB8003F748094804003020EFBE51990072412CD
:100BC8001F43051980E6AD18AF17121D48E4F51943
:100BD800C3E519940F74809480500CE5199007644C
:100BE800121F43051980E9E51804FDAF17121D48C7
:100BF800751910C3E519941F74809480500CE51979
:100C0800900764121F43051980E9121D41751920C8
:100C1800C3E519942F74809480500CE519900764EB
:100C2800121F43051980E9E5182403FDAF17121DAB
:100C380048751930C3E519943F74809480400302C5
:100C48000EFBE519900764121F43051980E6AD18DD
:100C5800AF17121D48E4F519C3E519940F74809471
:100C680080500CE5199007A4121F43051980E9E587
:100C78001804FDAF17121D48751910C3E519941F04
:100C880074809480500CE5199007A4121F4305192D
:100C980080E9121D41751920C3E519942F748094B9
:100CA80080500CE5199007A4121F43051980E9E547
:100CB800182403FDAF17121D48751930C3E51994A0
:100CC8003F748094804003020EFBE5199007A4123C
:100CD8001F43051980E6AD18AF17121D48E4F51932
:100CE800C3E519940F74809480500CE5199007E4BB
:100CF800121F43051980E9E51804FDAF17121D48B6
:100D0800751910C3E519941F74809480500CE51967
:100D18009007E4121F43051980E9121D4175192037
:100D2800C3E519942F74809480500CE5199007E45A
:100D3800121F43051980E9E5182403FDAF17121D9A
:100D480048751930C3E519943F74809480400302B4
:100D58000EFBE5199007E4121F43051980E6AD184C
:100D6800AF17121D48E4F519C3E519940F74809460
:100D780080500CE519900824121F43051980E9E5F5
:100D88001804FDAF17121D48751910C3E519941FF3
:100D980074809480500CE519900824121F4305199B
:100DA80080E9121D41751920C3E519942F748094A8
:100DB80080500CE519900824121F43051980E9E5B5
:100DC800182403FDAF17121D48751930C3E519948F
:100DD8003F748094804003020EFBE51990082412AA
:100DE8001F43051980E6AD18AF17121D48E4F51921
:100DF800C3E519940F74809480500CE51990086429
:100E0800121F43051980E9E51804FDAF17121D48A4
:100E1800751910C3E519941F74809480500CE51956
:100E2800900864121F43051980E9121D41751920A5
:100E3800C3E519942F74809480500CE519900864C8
:100E4800121F43051980E9E5182403FDAF17121D89
:100E580048751930C3E519943F74809480400302A3
:100E68000EFBE519900864121F43051980E6AD18BA
:100E7800AF17121D48E4F519C3E519940F7480944F
:100E880080500CE5199008A4121F43051980E9E564
:100E98001804FDAF17121D48751910C3E519941FE2
:100EA80074809480500CE5199008A4121F4305190A
:100EB80080E9121D41751920C3E519942F74809497
:100EC80080500CE5199008A4121F43051980E9E524
:100ED800182403FDAF17121D48751930C3E519947E
:100EE8003F74809480500CE5199008A4121F4305A4
:030EF8001980E975
:010EFB0022D4
:021F3B00C106DD
:101EE3007F01EFD394007480948040127E07EED379
:0E1EF30094007480948040031E80F31F80E4EE
:011F010022BD
:0A1FD800C2A0D2A0121EE3C2A02294
:101F7600758921759850758DF3858D8BE4F58CF5F3
:0A1F86008AD2AFD2ACD28EC28C22F8
:0B1FCD0030A1FDD28C20A1FDC28C22AF
:03000B00021FF4DD
:031FF400D20632E0
:100EFC00021244E86480F8E933E83360110460F0CE
:100F0C00ED33EC337009E8FCE9FDEAFEEBFF22045B
:100F1C0060DED3EB9FEA9EE99DE8C2E78CF0C2F756
:100F2C0095F0400CE8CCF8E9CDF9EACEFAEBCFFB22
:100F3C0012120F85D0F05804700320D5B3E804705A
:100F4C00075002B2D502124E92D5EC0460F7E4CCF5
:100F5C00C0E0C398F8603B94186008400DD0E0FBEB
:100F6C00021226E4FBFAC9FC8028E830E406E4C946
:100F7C00FBE4CAFCE830E305E4C9CACBFCE854073F
:100F8C006010F8C3E913F9EA13FAEB13FBEC13FC4A
:100F9C00D8F130F52FC3E49CFCEF9BFFEE9AFEEDED
:100FAC0099FDD0E0FBEF4E4D4C701222DB03021288
:100FBC004BEC2CFCEF33FFEE33FEED33FDED30E765
:100FCC00EB021226EF2BFFEE3AFEED39FDD0E0FBE3
:100FDC0050130BBB000302124EED13FDEE13FEEF8C
:080FEC0013FFEC13FC021226B6
:100FF400EC4D6011E8497017ED33EC3304600DE4F7
:10100400FCFFFEFD22E933E8330470F802124412B7
:10101400120F58046009E4CC2481500628500902B8
:10102400124E28400302124BC0E0EB4A7044B980D0
:1010340006D0E0FB02123AEF4E701CBD8008EBFFB5
:10104400EAFEE9FD80EBE98DF0A4FEE5F00210DD97
:10105400E9CDF9EAFEEBFFEF89F0A4FCE5F0CE89D7
:10106400F0A42EFFE435F0CD89F0A42DFEE435F094
:101074008067EF4E7005BD80D780C3EF8BF0A4ACC2
:10108400F0EE8BF0A42CFCE435F0F8EF8AF0A42CFD
:10109400E5F038FCE433CB8DF0A42CFCE5F03BF810
:1010A400EE8AF0A42CFCE5F038F8E433CF89F0A400
:1010B4002CFCE5F038CF3400CE89F0A42FFFE5F006
:1010C4003EFEE433C98DF0A42EFEE5F039CD8AF05E
:1010D400A42FFFE5F03EFEE43DFD33D0E0FB5007D6
:1010E4000BBB000F02124EEC2CFCEF33FFEE33FE71
:0610F400ED33FD0212269F
:1010FA0002124EEC5D046005E859047003021244C2
:10110A0012120F580460F6EC4860F2EC7004FDFE0F
:10111A00FF22C860DB2481C85009C39860025006C8
:10112A0002124B9850CAF582E9294B4A7005AB82E4
:10113A0002123A75F0007C1A7880C3EF9BEE9AEDA2
:10114A0099400DC3EF9BFFEE9AFEED99FDE842F040
:10115A00DC23ACF0D0E0FFD0E0FED0E0FDAB822093
:10116A00E7101BEB60BAEC2CFCEF33FFEE33FEED1D
:10117A0033FD021226E803F830E705C0F075F000E7
:10118A00EF2FFFEE33FEED33FD40B830E7C280AA01
:10119A0075F020800E75F010800575F0087D007ED0
:1011AA00007F003392D530D5031213BDEC334010C3
:1011BA00EF33FFEE33FEED33FDEC33FCD5F0ED22D9
:0E11CA00E5F0247EA2D513CC92E7CDCEFF2215
:1011D800EDD2E7CD33EC3392D524814006E4FFFE0F
:1011E800FDFC22FCE4CFCECDCC24E0501174FF806E
:1011F800EDC3CC13CCCD13CDCE13CECF13CF04700B
:07120800F030D5DE0213BD3A
:10120F00E9D2E7C933E833F892D5EDD2E7CD33EC25
:07121F0033FC5002B2D5229E
:10122600EC30E7100FBF000C0EBE00080DBD000429
:101236000BEB6014A2D5EB13FCED92E7FD2274FFD5
:10124600FCFDFEFF22E480F8A2D574FF13FC7D802E
:03125600E480EF42
:03000000021A2AB7
:0C1A2A00787FE4F6D8FD758152021A7135
:10125900E709F608DFFA8046E709F208DFFA803E77
:1012690088828C83E709F0A3DFFA8032E309F60864
:10127900DFFA8078E309F208DFFA807088828C83CC
:10128900E309F0A3DFFA806489828A83E0A3F60880
:10129900DFFA805889828A83E0A3F208DFFA804C5A
:1012A90080D280FA80C680D4806980F28033801031
:1012B90080A680EA809A80A880DA80E280CA80339A
:1012C90089828A83ECFAE493A3C8C582C8CCC58312
:1012D900CCF0A3C8C582C8CCC583CCDFE9DEE780E2
:1012E9000D89828A83E493A3F608DFF9ECFAA9F061
:1012F900EDFB2289828A83ECFAE0A3C8C582C8CCB7
:10130900C583CCF0A3C8C582C8CCC583CCDFEADECF
:10131900E880DB89828A83E493A3F208DFF980CC31
:1013290088F0EF60010E4E60C388F0ED2402B4042A
:101339000050B9F582EB2402B4040050AF232345D1
:0613490082239012A9733B
:10134F00BB010689828A83E0225002E722BBFE029C
:09135F00E32289828A83E49322CF
:10136800BC000BBE0029EF8DF084FFADF022E4CC69
:10137800F875F008EF2FFFEE33FEEC33FCEE9DEC32
:10138800984005FCEE9DFE0FD5F0E9E4CEFD22ED78
:10139800F8F5F0EE8420D21CFEADF075F008EF2FC2
:1013A800FFED33FD4007985006D5F0F222C398FDB3
:0513B8000FD5F0EA2250
:0E13BD00C3E49FFFE49EFEE49DFDE49CFC2241
:101A3600021C1DE493A3F8E493A34003F68001F28D
:101A460008DFF48029E493A3F85407240CC8C333B1
:101A5600C4540F4420C8834004F456800146F6DF80
:101A6600E4800B0102040810204080901F20E47ED1
:101A7600019360BCA3FF543F30E509541FFEE49375
:101A8600A360010ECF54C025E060A840B8E493A33C
:101A9600FAE493A3F8E493A3C8C582C8CAC583CA67
:101AA600F0A3C8C582C8CAC583CADFE9DEE780BE1F
:011F3D0000A3
:00000001FF
